:020000040800F2
:1000000040080020B9010008D73400081134000866
:10001000D5340008911E00080D39000800000000CA
:10002000000000000000000000000000A1350008F2
:10003000CD1E000800000000D93400083536000845
:10004000D3010008D3010008D3010008D301000840
:10005000D3010008D3010008D3010008D301000830
:10006000D3010008D3010008D3010008D301000820
:10007000D3010008D3010008D3010008C11E000805
:10008000D3010008D3010008D3010008D301000800
:10009000D3010008D3010008D3010008D3010008F0
:1000A000D3010008D3010008D3010008D3010008E0
:1000B000D3010008D3010008D3010008D3010008D0
:1000C000D3010008D3010008D3010008D3010008C0
:1000D000D301000801390008D3010008D30100084A
:1000E000D3010008D3010008D301000800F002F892
:1000F00000F052F80AA090E8000C82448344AAF170
:100100000107DA4501D100F047F8AFF2090EBAE86D
:100110000F0013F0010F18BFFB1A43F0010318473B
:100120007046000090460000103A24BF78C878C19D
:10013000FAD8520724BF30C830C144BF04680C60ED
:10014000704700000023002400250026103A28BF35
:1001500078C1FBD8520728BF30C148BF0B60704739
:10016000662904F0A482732900F0A9830020704757
:100170001FB59DE8030000F0F5FF00F0B7FB040099
:100180000020002103F06AFCE06000F0B3FC1FBD1A
:1001900010B500F018FD10BD00F080FD1146FFF70E
:1001A000E7FF03F0EDFB00F06FFF03B4FFF7F0FF94
:1001B00003BC01F049F9000009488047094800479D
:1001C000FEE7FEE7FEE7FEE7FEE7FEE7FEE7FEE707
:1001D000FEE7FEE704480549054A064B7047000064
:1001E000B1360008ED000008400200204008002061
:1001F00040040020400400200FB4044910B503AAB5
:10020000029800F061FB10BC5DF814FB380100207F
:100210000FB41CB5074B06AA7B44694600900598AD
:1002200000F023FB0020694600F032FB1CBC5DF8A7
:1002300014FB00007506000070B50C460546012A47
:1002400005D02878800600D5EA69002302E0012362
:1002500005E05B1C934202D2E05C0028F9D1A8695A
:10026000E618C01AA861286A184428622846AFF325
:10027000008004E0D5E9012114F8010B9047B44255
:10028000F8D32846AFF3008070BD2DE9F0474FF05A
:10029000000A89460446C0F820A02046E168884745
:1002A000002876D0252806D0D4E901219047206A7D
:1002B000401C2062F1E7E168204600258847C4F829
:1002C0001CA006460027C4F818A02A2E09D03046E4
:1002D00003F041FB38B304EB8708303EC8F81860E0
:1002E00019E059F8041B204604EB87029161E1688C
:1002F0008847012F064618D1E069002820DA25F04A
:1003000020051DE0D8F8180000EB800006EB400047
:100310003038C8F818002046E1688847064603F0E0
:100320001AFB0028EED1012F0AD02E2E08D120462C
:10033000E16888477F1C0646022F45F02005C4DB94
:10034000A069002803DA404245F00105A061E807F2
:1003500001D025F01005B6B1A6F14100192802D848
:10036000203645F400654A463146204625604D4614
:10037000FFF7F6FE58B1012806D0ED1D25F0070065
:1003800000F1080989E704E005F1040985E7304632
:100390008AE7206ABDE8F08710B5431C02E010F838
:1003A000011B71B18107FAD14FF0013202C88C1ADA
:1003B0008C4314EAC211F9D0C01A0A0603D0C01E39
:1003C00010BDC01A10BD0A0401D0801E10BD090264
:1003D000FCD0401E10BD4FF0000200B513469446FD
:1003E0009646203922BFA0E80C50A0E80C50B1F18D
:1003F0002001BFF4F7AF090728BFA0E80C5048BFA1
:100400000CC05DF804EB890028BF40F8042B08BF3E
:10041000704748BF20F8022B11F0804F18BF00F83A
:10042000012B704770477047704710B500F062FAB3
:10043000006810BD10B5044600F05CFA046010BD01
:1004400070472DE9FF4F0C461E464FF0FF378BB02B
:10045000D2E90001DDF860800A908A46C1F30A55AE
:1004600005B93D46002108464FF00000BAF1000FE3
:1004700000F4400005DA00EB80004FF4400101EA8F
:1004800050004FEA9059B9F1010F00DDB9460A98C2
:1004900050EA4A000ED044F61050A5F2FF3545430D
:1004A0002F14B8F1000F1ED07542291E1EDDC9F1B0
:1004B00000021CE0B8F1010F4FF0000001D0302124
:1004C00003E0F24305E02154401CB042FBDB304620
:1004D0000022002121540B99C1F80880C1E90020B5
:1004E0000FB0BDE8F08FBD1B6D1CDEE74A4600DA99
:1004F000694206A800F088FA06AB93E8070003AB50
:1005000083E8070050460A9901F036F88DE80700A5
:10051000A0F500501F3800900398002D0ADD42F22C
:100520001F014A460844002303A90390684601F0CE
:100530009FFA09E0A0F500504A461F38002303A99E
:100540000390684601F0A9FA8DE807000004000C4A
:1005500003D04FF0FF30410800E01046B8F1000F23
:1005600003D00022009215461EE0751E05D400F04F
:10057000C5F9303262556D1EF9D5B34601220843E4
:1005800002D000227F1C04E02078302801D1002214
:100590007F1E002A099784D01DE0112D07DA00F094
:1005A000ADF9303262556D1C50EA0102F5D10843B5
:1005B00002D00098C8B10EE00021681E05E0235C5F
:1005C000625C63542254401E491C8142F7DBAB46F7
:1005D000A81B401E0990002004F80B000B98099AF4
:1005E000C0F80880C0E9002B7AE711264FF0000818
:1005F00057E72DE9F04F88460446D21D22F0070147
:1006000091B0D1E90001CDE90A0103F080F9024679
:100610000B98C00F01D02D2007E02068810701D57D
:100620002B2002E0202101EAC000032A099001D01A
:10063000072A05DB03464146204600F0A5F90BE1F9
:100640002078800601D5E06900E00620B8F1650F4A
:10065000814606D0B8F1660F18D0B8F1670F70D197
:1006600031E00020B9F1110F009001DB112301E00E
:1006700009F101030AAA01A90CA8FFF7E2FEDDE9CE
:100680000C70002609F10105834647E001204B4626
:1006900000904FF000470AAA01A90CA8FFF7D1FE6D
:1006A000DDE90DB00C995D46002610B909F1010095
:1006B0000D18B9EB050003D4C0F1FF3609F10105AF
:1006C000A5EB09002BE0B9F1010F01DA4FF00109A8
:1006D0000020B9F1110F0090484601DD112300E020
:1006E00003460AAA01A90CA8FFF7ABFEDDE90C70CE
:1006F0004D4600268346207800070AD4AB4500DA31
:100700005D4601A8012D04DD411911F8011C3029B5
:1007100007D04F4502DA17F1040F04DA01208246B0
:100720000FE06D1EEEE7002F02DCED1B3E4403E000
:10073000781CA84200DD7D1CB81B00F1010A4FF0B7
:1007400000472078000703D4AA4501DB4FF0FF3AA9
:100750000021B7F1004F0DF143088DF8431024D06C
:1007600002202B23002F01DA7F422D230A21021EB3
:10077000A0F1010000DC5FB197FBF1FC97FBF1F207
:1007800001FB1C7C17460CF1300C08F801CDEEE79C
:10079000A8F1010003702188090501D5452100E079
:1007A0006521A0F1010800F8011C09980FA9A1EB2F
:1007B0000807FF1D00B10120411901EBEA70A16992
:1007C0003844081A401EA0612078C00602D4204692
:1007D000AFF30080099828B1D4E901219047206A3D
:1007E000401C20622078C00622D52046AFF300804E
:1007F0001EE0002E04DBB34502DD01A8805D00E0B1
:100800003020D4E901219047206A401C2062761CE8
:10081000AAF101005FEA000A0AD100F067F8C06897
:100820000168405CD4E901219047206A401C2062A5
:10083000281EA5F10105DCDC07E0D4E9012118F848
:10084000010B9047206A401C2062381EA7F1010767
:10085000F3DC2046AFF30080032011B041E6000036
:1008600001694A1C02610878704700B58FB0CDE974
:1008700001310021059105497944CDE90310114664
:100880006846FFF702FD0FB000BD0000E5FFFFFF67
:100890000A6802F8010B0A60704710B5436913B18A
:1008A000AFF3008001E0FFF7C7FC012010BD127814
:1008B00000F124010A7000224A700122EDE711685C
:1008C0004FF0FF32E9E70000074B70B50D467B445F
:1008D000FFF7CBFF0446284600F008F910B14FF0AF
:1008E000FF3070BD204670BD933000000048704757
:1008F0000002002000487047E001002030B5B0F150
:100900000A024FEA900E71F100034EEA817EB0EBCD
:100910000E0061EB91014FEA101E4EEA017E10EBD2
:100920000E0041EB11114FEA102E4EEA016E10EB52
:100930000E0041EB11214FEA104E4EEA014E10EB32
:100940000E0041EB1141401841F100014FEAD00087
:1009500040EA41704FEAD10110EB80054FEA810473
:1009600044EA907444EB01046D1944EB0404521BF7
:10097000A3414FF0000348BF0A3200D530BD401CF0
:1009800041F1000130BD00002DE9F0411F46044651
:1009900003260168072A01F4006004DB08B116A5EC
:1009A00005E016A503E008B115A500E015A521F0A6
:1009B00010002060A069C01EA0610FB1401EA061A0
:1009C0002046AFF300804FB1D4E90121384690476B
:1009D000206A401C2062C01C206206E0206AFAE700
:1009E000D4E9012115F8010B9047761EF8D2204674
:1009F000AFF30080BDE8F0814E414E006E616E00A5
:100A0000494E4600696E66002DE9F047814616465C
:100A10008AB0354878440DC88DE80D0032487844D6
:100A2000801C03AC0DC884E80D0041F69B300844DF
:100A3000372190FBF1F290FBF1F5A5F1800501FB68
:100A400012041B3C02D56442012000E00020DFF8C4
:100A500098A080460027FA44AAF1BE0A0EE0E007FB
:100A60000AD03246684607EB470101230AEB8101B1
:100A700001F013F88DE8070064107F1C002CEED104
:100A8000194F7F44AE3F19E0E80715D007EB04107B
:100A90000DF1180A90E80E008AE80E00C068F042D6
:100AA00001D1981908903246012306A903A800F045
:100AB000F4FF03AB83E807006D10641C002DE3D145
:100AC0004FF0010332466946B8F1000F03A802D087
:100AD00000F0CEFF01E000F0E0FFC9E90001C9F835
:100AE00008200AB0BDE8F087543D0000007B00F00C
:100AF0008000704710B542485421FFF76CFC414814
:100B00005421FFF768FC40485421FFF764FC3F493B
:100B10003B483C4A3F4B08603D490A603A491960EE
:100B2000531C0365481C1065012008653B48344A86
:100B300039A1784400F00CFA20B9384878440A38D2
:100B400000F0ABFA37482F4A35A1784400F000FA9C
:100B500020B9344878440A3800F09FFA32482A4ACB
:100B60002FA1784400F0F4F920B92F4878440A38CE
:100B700000F093FA40232248DC000021224600F0D6
:100B8000C4F920B125487844543800F086FA1D484D
:100B900022464023002100F0B8F920B121487844D2
:100BA000543800F07AFA184822461023002100F049
:100BB000ACF9002806D01C487844BDE810405638EF
:100BC00000F06BBA10BD104870B5006D20F0010444
:100BD0000B4800F033FA0B4800F030FA0A4800F0F6
:100BE0002DFA09E0206D20F00105204600F026FADC
:100BF000204600F078F82C46002CF3D170BD0000A0
:100C0000E4000020380100208C0100201C0000209E
:100C10002000002024000020720000004E3C000054
:100C2000770000003A3C0000263C00000EB5CDE9FC
:100C30000001FFF7B1FB029069460120ABBE0EBD7B
:100C400008B5694600900220ABBE08BD1FB58DE80F
:100C5000070069460520ABBE04B010BD1FB58DE886
:100C60000F0069460620ABBEF6E708B5694600905E
:100C70000920ABBE08BD1CB5CDE9000169460A20BC
:100C8000ABBE1CBD704708B5694600900C20ABBEDA
:100C900008BD000000487047E00100207546FFF7DE
:100CA000F9FFAE4605006946534620F00700854629
:100CB00018B020B5FFF78EFABDE820404FF00006CF
:100CC0004FF000074FF000084FF0000B21F0070134
:100CD000AC46ACE8C009ACE8C009ACE8C009ACE877
:100CE000C0098D46704770B50446051F00F01EFA16
:100CF0000068002C14BF446870BD002C18BFAC42C3
:100D00003CBF20466468F8D301680A18AA4218BF9D
:100D1000456003D12A6805461144016028684119DD
:100D2000A1421CBF6C6070BD6168696021680844A5
:100D3000286070BD2DE9F04705460C46C86820F4D0
:100D4000201040F48000C860800602D5084600F0FC
:100D50003AFBE06841F282014FF0FF39014002297D
:100D600003D0204600F0D8FAB5E000F42041B1F5F8
:100D7000004F0FD1C00306D56168E06A884200D8F1
:100D80000846606006E02069E06260606069FFF725
:100D90007AFFA061A0680022EEB200280DDAE168B7
:100DA0008B050AD4C043A06041F490302260E0601B
:100DB0006068411C61600670A5E0E06890462260B2
:100DC00040F40050E060206968BB6069FFF74DFFA8
:100DD000012704F12405A0B1A08910F4407F08D0B8
:100DE000E06900F0EEF9206118B1E06840F40060BD
:100DF00016E0E7612561E06820F4407040F480600F
:100E00000EE0E06900F0DDF900282061F1D0E06833
:100E100040F4006010F4407FE06002D140F4807044
:100E2000E06020696060E06825696FF0010AC10533
:100E30001FD56168E06A884200D80846411B04D08B
:100E40002246284600F072FAF0BBE068010203D5A2
:100E5000E562C4E9015854E0691CE1626160E1693E
:100E600040F48030491EC4E9021030462E70BDE8BF
:100E7000F087010202D500F480320AE06068411C6C
:100E800061600670E0680A2E40F48030E06006D0B1
:100E90000022E16A6068814203D90B4602E0012228
:100EA000F7E70346A7895B1B7F0503D4E7699F42E9
:100EB00000DDE2B1814200D80146E5620F1AC4E9C3
:100EC0000158002B09DD00E005E0224619462846BE
:100ED00000F02CFA08B14846C9E747B1A069E562BD
:100EE0006560C01BA061E06840F01000E060E06851
:100EF000000208D56168A069E562491B0844656085
:100F0000A0615046B3E73046B1E770B5C468A507A5
:100F100013D0650211D4B2F5807F09D0B2F5007FFD
:100F200006D0B2F5806F08D1012300F1240106E05C
:100F30005D1E6FF07F46B54201D3012070BD016197
:100F4000C361416024F470611143C160002070BD31
:100F50002DE9F0410C4607461646104600F06EF8A3
:100F60002078611C61280AD0722802D077283CD1F1
:100F700002E00125002405E00225042402E0082403
:100F800048F2020511F8010B2B2806D0622809D07F
:100F900011F8010C74280AD00BE045F0030544F069
:100FA0000204EFE745F0040544F00104EAE744F0E9
:100FB000100438462146FFF739FE411C15D00021A8
:100FC000316171604FF40071F560F161706120076B
:100FD00004D530460222002100F022F9306D40F0A5
:100FE000010030653046BDE8F0810020FBE72DE9C7
:100FF000F0410D460646104C206DC10704D0410853
:1010000004D020F00104F7E722460EE0542000F05F
:10101000D8F807000ED0206D47F001010843542195
:1010200020653846FFF7D7F93A4629463046BDE8ED
:10103000F0418DE70020D6E7E40000202DE9F047DD
:1010400004464FF000094FF0FF37C568D4E9048625
:10105000A80707D0204600F093F93046FFF7F0FDCF
:10106000002802DA3846BDE8F087280502D5404658
:10107000FFF739FE4C212046FFF7ADF9206D20F037
:10108000010020654846EEE710B50446AFF3008046
:101090002046BDE81040FFF788B810B500F0BAF957
:1010A000BDE8104000F0B0B94FF0013C50F8042BFF
:1010B00051F8043B9A4221D1A2EB0C03934313EA6B
:1010C000CC1317D150F8042B51F8043B9A4215D198
:1010D000A2EB0C03934313EACC130BD150F8042B6F
:1010E00051F8043B9A4209D1A2EB0C03934313EA53
:1010F000CC13DBD04FF00000704700BFD01A01BA0C
:10110000B1FA81F101F0180122FA01F0CB40C1F1EE
:101110002001DBB2C0B2C01A2CFA01F3D11A9143FC
:1011200011EAC311E6D170477047000000487047CC
:10113000E8010020704770477047704738B5044693
:101140000A4600206946AFF30080002808BF38BD7A
:1011500002460099204600F084F9012038BD0120A4
:1011600000F0D3B9F8B5AFF30080054600200C4677
:10117000102000BF0646A819A0420DD93246694684
:101180000020AFF30080070008BF00F0BEF9009810
:10119000A04218BF0546C419FFF7C8FF05600746FF
:1011A000F01D20F007004619284600F053F9B4421C
:1011B00008BFF8BDA21B31463868BDE8F84000F012
:1011C00050B970B50646FFF7B1FF056806F10B0090
:1011D00020F00704B4429CBF002070BD2B466A6813
:1011E000BAB11068A04210D304F1080188423CBF94
:1011F0005068586007D35168101941601168091B85
:10120000016058601460101D70BD13465268002ABA
:10121000E7D121462846FFF791FF0028DED170BDB7
:101220002DE9F041044616460D464769007B8007CC
:101230002ED03846FFF719FD50BB3EB3012E02D029
:10124000022E25D104E0204600F025F905441DE0DA
:101250003846FFF718FDE168002841F01001E16011
:1012600005DA204600F058F80120BDE8F081C903F6
:101270000BD56268E16A914200D81146A269114417
:101280002269891A814200DD08460544002D01DAF1
:101290000220EAE7E16A6068E268814206D29103CF
:1012A000E06203D522F4003141F01002A669002764
:1012B000AE4213DCE16A814201D90B4600E00346ED
:1012C00003EB060C2369ACEB030CAC4506DD814255
:1012D00001D98C4600E084469C4505D1A760276073
:1012E00042F02000A5620DE0AD1BE669AE1B814215
:1012F000A66000D90846C01A281A206058196060F4
:1013000022F0200003490840E060002084F8487083
:10131000ABE70000BFCFD7FFC16821F4001141F057
:101320008001C16000218160016070472DE9F047B4
:10133000814614460E464FF0FF383248D56857694B
:10134000054209D03846A169FFF795FC002811DB5A
:101350002C48C0430540E5602B4632464946384696
:10136000FFF774FCA16920F00042B21A1144002872
:10137000A16103D02046FFF7CFFF4046BDE8F087CC
:1013800070B504460569C06A6168884200D808469D
:10139000E16821F42011E160C90312D5A84208D008
:1013A0002246411B2846FFF7C1FF10B14FF0FF3026
:1013B00070BD0020E562C4E90150E06820F480308F
:1013C000E060002070BD10B50446C06820F0200029
:1013D000E060A16AA06988420DD02046FFF7D0FFE7
:1013E000E06820F4405040F01000E060A06AA06186
:1013F0002069E062606044F24001E0688843E06098
:1014000010BD000010000200002801D000F01CB840
:101410007047000010B5014602A000F05DF8012001
:1014200010BD000053494752545245443A2052657A
:101430006469726563743A2063616E2774206F700B
:10144000656E3A200000000001491820ABBEFEE79F
:101450002600020000210160C0E901107047102041
:101460007047034640688C46002818BF88423CBF3E
:1014700003464068F8D318681844884207D00CF136
:10148000030020F00700001D411A521A0146081DF2
:101490000A60FFF728BC10B50146C268900703D068
:1014A000900607D5886A0AE0FFF724FA0121016057
:1014B000881E10BD8B69486818440B69C01A91F8E2
:1014C00048301BB191F84910401A10BD1103FCD5EA
:1014D0000028FADD401E10BD70B505460C460A20F6
:1014E00000E06D1C00F018F835B128780028F8D11C
:1014F00002E0641C00F010F814B120780028F8D144
:10150000BDE870400A2000F007B810B500F00CF8F4
:10151000BDE81040FFF778BF08B569468DF80000B8
:101520000320ABBE08BD000010B5012805D0002186
:1015300003A0FFF7D1FF012010BD09A1F8E70000CB
:1015400053494752544D454D3A204F7574206F66AC
:101550002068656170206D656D6F72790000000014
:101560003A2048656170206D656D6F727920636FF8
:1015700072727570746564005FEA400C08BF91F088
:10158000000F4FEA8C234FEAC12243EA51514FEA40
:101590001C5018BF00F5F0404FEA300018BF41F072
:1015A00000415FEA6C5C00F02980BCF1FF3F08BF9E
:1015B00040F080407047130C06BF12044FF0100C2F
:1015C0004FF0000C130E04BF12020CF1080C130FA5
:1015D00004BF12010CF1040C930F04BF92000CF134
:1015E000020CD30F04BF52000CF1010C11464FF056
:1015F0000002A0F11F00A0EB0C00704711F0004F9B
:1016000008BF704731F000413FF4D5AF0B0C06BF67
:1016100009044FF0100C4FF0000C0B0E04BF090230
:101620000CF1080C0B0F04BF09010CF1040C8B0F1B
:1016300004BF89000CF1020CCB0F04BF49000CF170
:10164000010CCCF12003A0EB0C0022FA03F302FA08
:101650000CF241EA030100F10100704720F07F4CD9
:1016600080EA030023F07F47ACEB070303F57C53CC
:1016700000F0004003F1FF032DE980494FEA154BCC
:1016800009B44FEA144325EA0B4E24EA03480FF24B
:10169000042606EB132749083E785FEA320203FB73
:1016A0000667C7F5000707FB06F64FEA54374FEA0F
:1016B000D64606F1020607FB066CCCF1005C4FEA49
:1016C0001C472CEA074C07FB06F40CFB06F504EB61
:1016D00015464FEA961634BF00204FF000404FEAFF
:1016E000D13706FB07FC4FEA1C4C0CFB0BF7D21B57
:1016F00003FB0CF761EB07010CFB0EF7B0EB0740A7
:1017000072EB17420CFB08F734BFA2EB0742B2EBB7
:10171000074261EB17414FEA0C444FEA910706FB81
:1017200007FC4FEA1C4C0CFB0BF7B0EBC74072EB0D
:10173000573203FB0CF734BFA2EBC742B2EBC742F0
:1017400061EB57310CFB0EF7B0EBC70072EB577231
:101750000CFB08F734BFA2EBC702B2EBC70261EB88
:101760005771039F4FEA816141EA921104EBCC0467
:101770004FEAD1374FEA826206FB07FC42EA901239
:101780004FEA80604FEA1C4C0CFB0BF7D21B03FBAB
:101790000CF761EB07010CFB0EF7B0EB074072EBA7
:1017A00017420CFB08F734BFA2EB0742B2EB07422B
:1017B00061EB17414FEA8C554FEA910704EB9C24EB
:1017C00006FB07FC4FEA1C4C0CFB0BF7B0EBC740C9
:1017D00072EB573203FB0CF734BFA2EBC742B2EBFC
:1017E000C74261EB57310CFB0EF7B0EBC70072EB51
:1017F00057720CFB08F734BFA2EBC702B2EBC7026B
:1018000061EB577115EB4C254FEA816141EA92116A
:101810004FEA82624FEAD13742EA901206FB07FC98
:1018200044F100044FEA80604FEA1C4C0CFB0BF7BC
:10183000D21B03FB0CF761EB07010CFB0EF7B0EBBF
:10184000074072EB17420CFB08F734BFA2EB0742CC
:10185000B2EB074261EB174115EB1C154FEA8131E2
:1018600041EA92414FEA823242EA90424FEA8030A6
:101870004FEA0C7644F1000448EA03434EEA0B4871
:101880004FF0000EB2EB080C71EB030724BF624669
:1018900039464EEB0E0E4FF0000B001852414941F5
:1018A0004BEB0B0BB2EB080C71EB03077BF1000B5E
:1018B00024BF624639464EEB0E0E4FF0000B001867
:1018C000524149414BEB0B0BB2EB080C71EB030798
:1018D0007BF1000B24BF624639464EEB0E0E51EAF7
:1018E000020718BF46F0010616EB0E7655F100020E
:1018F00054F1000103D5BDE88901BDE80088BDE8C9
:101900008901BDE80048B619524141EB0101A3F13C
:101910000103704780807F7E7D7C7B7A7978777643
:1019200076757473727171706F6E6E6D6C6C6B6ABC
:101930006A6968686766666564646363626161605A
:10194000605F5F5E5E5D5D5C5C5B5B5A5A595958D7
:101950005857575656555555545453535252525141
:10196000515050504F4F4F4E4E4D4D4D4C4C4C4B97
:101970004B4B4A4A4A4949494848484747474746DE
:10198000464645454544444444434343434242421A
:1019900042414141002B9C4630D477002BD01CB5EE
:1019A0004FEA370703B44FF010004FF01001BAF1BF
:1019B000000F06D0BCF1000FDCBF40F0080040F083
:1019C00008014FF000000FBCBDE810400BF1010B07
:1019D000BBF1010F08BF5FEA170722BF12F1010236
:1019E00011F101014FF0004143F1000300F000400C
:1019F00043EA00007047F9D35708D0E746EA0646A5
:101A000013F1400F4FEA16461FDD13F1200FDFBF21
:101A100016430A46002120335B42BED0C3F12007A3
:101A200046EA064602FA07F74FEA164646EA07066E
:101A3000C3F1200722FA03F201FA07F721FA03F1B2
:101A40004FF0000342EA0702A7E746EA020646EA29
:101A500006464FEA164646EA0106BCBF46EA064677
:101A6000360C4FF000034FF000024FF0000194E7F6
:101A70002DE9804C9A46934670B491E8380007C827
:101A800031EA400C48BF34EA430C03D5FFF7E6FDCA
:101A9000FFF780FFF0BCBDE8008C2DE9804C9A4632
:101AA000934670B491E8380007C810F0804F08BF23
:101AB00013F0804F03D100F005F8FFF76BFFF0BC87
:101AC000BDE8008C20F07F4780EA030023F07F4CC4
:101AD00007EB0C03A3F57C5300F00040A3F1FE03D9
:101AE00092F0000F00F0B38095F0000F00F07780C7
:101AF0002DE901494FEA11404FEA144621EA004816
:101B000000FB06FC24EA064708FB06F607FB08F87C
:101B100000FB07F718EB06484CEB164C4FEA124B4C
:101B200018EB07484FEA15464CEB174022EA0B4EDC
:101B30000BFB06FC25EA06470EFB06F607FB0EFE2E
:101B40000BFB07F71EEB064E4CEB164C4FF0000656
:101B50001EEB074E4CEB174B18EB0B0840F1000047
:101B600018EB0E0B58EB000840F100008F1A4FF0F5
:101B700000013CBFC943661B14BFB5EB040C002138
:101B80003CBFC943F61B4FEA17444EEA8E0E27EAC4
:101B900004454FEA1C4704FB07622CEA074C05FB8F
:101BA00007F70CFB05F604FB0CFC16EB074642EBB3
:101BB000174216EB0C4642EB1C421BEB060658EB99
:101BC0000202414146EA9E0601D5BDE80189B619E7
:101BD000524141EB0101A3F10103BDE801894FEA44
:101BE00014454FEA114724EA054621EA074C05FB54
:101BF00007F406FB07F70CFB06F105FB0CFC11EBE9
:101C0000074144EB17444FEA124711EB0C4144EBF8
:101C10001C4422EA074C05FB07F206FB07F70CFB06
:101C200006F605FB0CFC16EB074642EB174216EBDB
:101C30000C4642EB1C456A1854F1000148BF70473E
:101C4000B619524141EB0101A3F10103704795F030
:101C5000000F37D04FEA11424FEA144721EA0246FB
:101C600024EA074C02FB07F106FB07F70CFB06F41E
:101C700002FB0CFC14EB074441EB17414FEA1547FC
:101C800014EB0C4441EB1C4125EA074C02FB07F521
:101C900006FB07F70CFB06F602FB0CFC16EB0746EF
:101CA00045EB174516EB0C4645EB1C42121951F15A
:101CB000000148BF7047B619524141EB0101A3F141
:101CC000010370474FEA14454FEA114724EA0546DD
:101CD00021EA074C05FB07F106FB07F70CFB06F2B0
:101CE0004FF0000605FB0CFC12EB074241EB1741DD
:101CF00012EB0C4251EB1C4148BF7047921841EB6C
:101D00000101A3F1010370472DE9F04700252C469E
:101D10004FF06636DFF85880DFF858904FF4FA67D6
:101D200000F0A2F802F03AF83246434602F04AF8D0
:101D300000224B4601F0DAFE01F0A6FE01462846DD
:101D400002F050FA0546012000F060FC641CBC4221
:101D5000E6DB0949284602F0A7FA0849486002F084
:101D600015FABDE8F04702460B4605A0FEF744BA57
:101D700066660A4000FEAF400000FA440000002002
:101D80004F6666736574203D20252E346620560DFF
:101D90000A00000070B5044600688168C943C9079D
:101DA00017D1816821F00101816000F037FD0546FF
:101DB0000AE000BF00F032FD401B022804D9206871
:101DC0008068C043C00706D020688068C043C00751
:101DD000F0D0002070BDA06A40F01000A062E06A60
:101DE00040F00100E062012070BD0000F8B500265F
:101DF0000446009600688168C943C9072DD08168F0
:101E000041F001018160164816490068B0FBF1F00D
:101E100000E0401E00900028FBD100F0FFFC0546CA
:101E200016E000BF00F0FAFC401B022810D9206821
:101E30008068C043C0070BD0A06A40F01000A062C9
:101E4000E06A40F00100E06284F824600120F8BDFF
:101E500020688068C043C007E4D10020F8BD0000BE
:101E60001800002040420F0010B5084800F00CFA9E
:101E70004FF0FF31054800F069F9044800F0A8F878
:101E800084B2024800F060FA204610BD280000200D
:101E9000FEE7000010B502F079F90022054B01F0D1
:101EA00091FF054A054B01F08DFFBDE8104001F0A0
:101EB000EBBD000000806B409A9999999999E93F90
:101EC000014800F0CBBA0000A0000020704772B6B5
:101ED000FEE70000F8B50024009490F82420254681
:101EE000012A12D0012280F824204A681F23072AE1
:101EF0000DD20668776B521E02EB820293409F431D
:101F00000B6893401F43776319E00220F8BD066811
:101F10000D2A0AD2376BD21F02EB820293409F43F5
:101F20000B6893401F43376309E0F76A0D3A02EBF1
:101F3000820293409F430B6893401F43F7620A68F5
:101F4000072306680A2A0AD3F7680A3A02EB420214
:101F500093409F438B6893401F43F76008E03769C5
:101F600002EB420293409F438B6893401F433761CB
:101F70000A68102A01D0112A20D1124B02689A4215
:101F800017D193681B0219D4936843F4000393603C
:101F90000968102912D10C490C4A0968B1FBF2F109
:101FA00001EB8101490000E0491E00910029FBD1AD
:101FB00004E0816A41F020018162012480F824500C
:101FC0002046F8BD002401401800002040420F00C8
:101FD0000068C06C704700002DE9F0414FF0000729
:101FE00004003D467ED0A06A002628B9E66284F847
:101FF0002460204600F07EF82046FFF7CBFEA16A61
:10200000C90600D420B1A06A40F01000A06269E0C7
:10201000A16A21F4885141F00201A1626268E1697C
:10202000237B0A4347EA43010A43A1684FF48077C0
:10203000B94209D0012907D05FF0000194F814C01B
:10204000BCF1010F02D00AE03946F7E7F3B1A36A09
:1020500043F02003A362E36A43F00103E3622368D1
:10206000D3F804C02CF4694C4CEA010CC3F804C04A
:1020700021688B68DFF870C003EA0C0313438B60A0
:10208000A168B9420BD0012909D00CE0DFF85CC08F
:10209000A3690CEB43330B4343F40061DFE7218A70
:1020A0000D05A5F580152168CB6A23F470032B4339
:1020B000CB62216889680E4B1940914208D1E662D3
:1020C000A16A21F0020141F00101A162BDE8F081A5
:1020D000A06A20F0020040F01000A062E06A40F028
:1020E0000100E0620120F1E7FDF7E1FF00E0FFFF02
:1020F000FE0E1FFF00B585B00021009101910291F5
:10210000039100680E49884218D10E48816941F454
:1021100000718161816901F400710491816941F06C
:10212000040181618069694600F004000490012087
:10213000009003200190044800F07AFA05B000BD39
:102140000024014000100240000801402DE9F8433E
:1021500000270D460446009700F060FB804620688B
:102160008168C90508D5A06A40F02000A06284F803
:1021700024700120BDE8F8834168C90503D4C06A12
:1021800010F4700F2AD0022000F0E6FB3B490968EA
:10219000B1FBF0F62068036939490B424FEA61014F
:1021A0004FEAA1121FD1C3684FEA611C13EA0C0F5A
:1021B00019D103690B4225D1C068104222D11420E5
:1021C00023E0681C0AD02DB100F028FBA0EB08002A
:1021D000A84203D920680068800725D520680068D8
:1021E0008007EED52DE003690B4202D1C168114290
:1021F00006D0026923490A4206D1C068084203D1C9
:10220000542002E0292000E0FC204643009816E01C
:10221000681C11D02DB100F001FBA0EB0800A84212
:102220000AD90098B04207D2A06A40F00400A06228
:1022300084F8247003209DE70098401C0090B04271
:10224000E6D321686FF012000860A06A40F40070C5
:10225000A06220688068C0F3424007280CD1207B30
:1022600050B9A06A20F48070A062A06AC00403D4B0
:10227000A06A40F00100A06200207BE71800002067
:10228000244992244992240070B5044690F8240011
:1022900001280DD0012084F824002046FFF7A6FD78
:1022A00002004FF0000005D084F82400104670BDF5
:1022B000022070BDA16A40F20123994341F480716C
:1022C000A1621F4D23681F49AB4218D10E6816F456
:1022D000702F14D0A66A46F48016A6620E687605A2
:1022E00005D5A66A26F4005646F48056A662A66A6C
:1022F000F6040AD5E66A26F00606E66206E0A66A55
:1023000026F48016A6625E68E9E7E06284F824009D
:102310006FF00200186020688368C3F34243072B04
:1023200005D1A84208D1096811F4702F04D0816842
:1023300041F480118160B9E7816841F4A001F9E7B7
:10234000002801400424014010B5044690F8240000
:10235000012807D0012084F824002046FFF71AFD49
:1023600010B107E0022010BDA16A21F4885141F0AC
:102370000101A162002184F8241010BD10B590F86D
:1023800021100022022905D00421816380F8202039
:10239000012010BD01680B6823F00E030B6001687B
:1023A0000B6823F001030B6090F84030C46B0121EF
:1023B00001FA03F3636080F8211080F820201046B2
:1023C00010BD000010B590F821100024022903D0A0
:1023D0000421816301243DE001680A6822F00E02B5
:1023E0000A6001680A6822F001020A601A4A01685C
:1023F000914201D1012121E0174A1432914201D1C9
:1024000010211BE0144A2832914201D1891515E0B0
:10241000114A3C32914201D189140FE00E4A5032E8
:10242000914202D14FF4803108E00B4A643291426C
:1024300002D14FF4801101E04FF08071064A083A52
:102440005160012180F82110002180F82010416B9B
:1024500001B18847204610BD080002402DE9F05F19
:10246000C16B0C6801680B68D0F840C0042202FA06
:102470000CF2494DDFF824A1494E4A4FDFF828B14C
:10248000DFF828E122422CD05A072AD50A689206A2
:1024900003D40A6822F004020A600168A94201D14B
:1024A000042219E0514501D1402215E0B14202D188
:1024B0004FF4806210E0B94202D14FF480420BE049
:1024C000594502D14FF4802206E0714502D14FF404
:1024D000800201E04FF080622F4908394A60C16AEA
:1024E0003BE04FF0020808FA0CF818EA040F4FF02E
:1024F00000094FF0010235D05FEA837832D50B68CE
:102500009B0605D40B6823F00A030B6080F821209A
:102510000168A94201D1022219E0514501D12022CE
:1025200015E0B14202D14FF4007210E0B94202D17D
:102530004FF400520BE0594502D14FF4003206E04F
:10254000714502D14FF4001201E04FF000721249C0
:1025500008394A6080F82090816A00291AD0BDE8C5
:10256000F05F0847082505FA0CF5254212D01B0735
:1025700010D50B6823F00E030B6090F84010C36B6E
:1025800002FA01F15960826380F8212080F82090DE
:10259000016BE2E7BDE8F09F080002401C0002402A
:1025A0003000024044000240580002406C000240EB
:1025B00030B528B308C8134914221944B1FBF2F10D
:1025C0008900C16310498163022141771A6843F68B
:1025D000F0718A43D0E900142143D0E902452C432D
:1025E0002143046921434469214384692143114300
:1025F000196000214163012242770177084630BD0E
:10260000012030BDF8FFFDBF0000024070B5044658
:1026100000F004F90546601C02D004480078044428
:1026200000F0FCF8401BA042FAD370BD0C00002063
:102630002DE9F84FDFF8B8910024A9F1040B2346E7
:102640000F2709F1040AABF1040EC9E00125A540EA
:102650002A40AA427DD1674ED1F804C0ACEB0608EF
:10266000B44532D014DCBCF1030F3AD009DCBCF124
:10267000000F2AD0BCF1010F1CD0BCF1020F31D1E8
:102680001DE0BCF1110F17D0BCF1120F2AD119E0D7
:10269000B8F5881F19D006DCB8F5803F15D0B8F51D
:1026A000801F1FD111E0B8F5001F0ED0B8F5041F30
:1026B00018D10AE0CB6815E0CB681B1D12E0CB688F
:1026C00008330FE0CB680C330CE08B682BB1012B87
:1026D0004FF0080303D0456104E0042302E00561E4
:1026E00000E00023FF2A01D8064601E000F10406BD
:1026F0004FEA840501D9A5F12005D6F8008007FA34
:1027000005FC28EA0C0803FA05F548EA0508C6F8AE
:1027100000804D68ED0062D5374DAE6946F0010688
:10272000AE61AD6924F0030605F001050095334D57
:1027300006EB050CDCF80850A607360F07FA06F87A
:1027400025EA0805DFF8B880404503D14FF00008BE
:1027500017E044E0DFF8AC80404502D14FF00108BB
:102760000FE0DFF8A480404502D14FF0020808E0F6
:10277000DFF89880404502D14FF0030801E04FF0A8
:10278000040808FA06F848EA0508CCF808804D68FD
:10279000D9F80060ED024D4601D5164300E096439E
:1027A0002E604D68DAF80060AD02554601D516433B
:1027B00000E096432E604D68DBF80060AD035D4697
:1027C00001D5164300E096432E604D68DEF80060A8
:1027D000ED03754601D5164300E096432E60641C58
:1027E0000D682A46E5407FF431AFBDE8F88F000060
:1027F00008040140000011100010024000000140D8
:1028000000080140000C014000100140001401408C
:102810000AB1016170470904FBE7000001488068C4
:10282000704700000C0000200248816802781144C3
:10283000816070470C000020074810B5016841F026
:1028400010010160032000F075F80F2000F006F879
:1028500000F024F8002010BD0020024070B50D4D9E
:1028600004464FF47A712878B1FBF0F00A49096800
:10287000B1FBF0F000F0A4FB48B9102C07D2002205
:102880002146501E00F036F800206C6070BD01201B
:1028900070BD00000C000020180000200C4808B596
:1028A000816941F001018161816901F001010091BB
:1028B000C16941F08051C161C06900F08050009051
:1028C0000448416821F0E06141F00071416008BDB9
:1028D0000010024000000140002809DB00F01F0248
:1028E000012191404009800000F1E020C0F8001172
:1028F00070470000F0B40E4B1B680C46C3F3022374
:10290000C3F10705042D00D90425191D072901D29B
:10291000002300E0DB1E012606FA05F1491E2140D6
:1029200099409E40761E16403143F0BC01F003B83A
:102930000CED00E0064900F0070208684FF6FF03BF
:10294000184040EA0220034A104308607047000024
:102950000CED00E00000FA0510B501460020234C04
:10296000012922D0022939D010291DD1616822689D
:10297000D20119D51E48C1F38342C903805C0AD530
:1029800061681B4AC1F34041921E515C194AB2FB77
:10299000F1F1484301E0184948436168490203D412
:1029A00040000321B0FBF1F010BD226AC2F3012107
:1029B000012903D1920701D5C80310BD022905D111
:1029C000626A920702D549F6404010BD0329FCD146
:1029D00021688903F9D54FF2244010BD00F02AF98F
:1029E0006168C1F38131491C4900DBE700100240F6
:1029F000C646000800127A0000093D002DE9F843A0
:102A000005460078354CC00754D0E0690026C00068
:102A100008D4E06940F08050E061E069012600F0F0
:102A2000805000902E480168C90512D40168804684
:102A300041F480710160FFF7F1FE074605E000BF39
:102A4000FFF7ECFEC01B642823D8D8F80000C005AF
:102A5000F6D5206A10F4407021D0A98801F44071A5
:102A600081421CD0206A1F49012220F440700A6074
:102A700000220A602062C00711D0FFF7CFFE074690
:102A800041F2883808E000BFFFF7C8FEC11B41458E
:102A900002D90320BDE8F883206A8007F4D5206AB4
:102AA000696820F44070084320621EB1E06920F09C
:102AB0008050E0612878800705D56068A96820F417
:102AC0004040084360602878C00605D56068E96822
:102AD00020F48000084360600020DBE70010024023
:102AE00000700040400442422DE9F0470F460500C7
:102AF00061D0434E306800F00700B84209D2306818
:102B000020F0070038433060306800F00700B8421A
:102B100051D128683B4C810712D5400703D5606826
:102B200040F4E06060602878000703D5606840F4F6
:102B3000605060606068A96820F0F0000843606041
:102B40002878C00728D06868012810D0216802289A
:102B500010D0890700292EDA616821F003010143B2
:102B60006160FFF75BFE804641F288390DE0216825
:102B70008903EFE78901EDE7FFF750FEA0EB0801BD
:102B8000494502D90320BDE8F0876068696800F014
:102B90000C00B0EB810FEFD1306800F00700B842B5
:102BA0000BD9306820F0070038433060306800F0FF
:102BB0000700B84201D00120E5E72878400705D595
:102BC0006068E96820F4E0600843606028780007E6
:102BD00006D56068296920F4605040EAC100606051
:102BE00000F038F86168084AC1F30311515CC8402D
:102BF0000649086006480068FFF730FE0020C2E77B
:102C00000020024000100240D646000818000020B4
:102C1000100000200448054900684968044AC1F3CF
:102C20000221515CC840704718000020001002408B
:102C3000E64600080448054900684968044AC1F3AB
:102C4000C221515CC84070471800002000100240AB
:102C5000E64600080E4A51680E4801F00C03042BAA
:102C600011D0082B0FD10C48C1F38343C903C05CBA
:102C70000AD55168084AC1F34041921E515C054A89
:102C80005043B0FBF1F070470449484370470000DF
:102C90000010024000127A00B446000800093D000E
:102CA0002DE9F84F040070D02078C04DC00749D0FE
:102CB0006868C0F38100012807D06868C0F381000C
:102CC000022809D16868C00306D52868800339D571
:102CD00060680028E7D035E06068B0F5803F0BD031
:102CE00010B1B0F5A02F11D0286820F480302860F2
:102CF000286820F4802002E0286840F480302860B2
:102D0000606890B1FFF78AFD06460AE0286840F443
:102D100080202860F0E700BFFFF780FD801B64285B
:102D200073D828688003F7D50CE0FFF777FD0646D7
:102D300005E000BFFFF772FD801B6428F0D828680B
:102D40008003F7D420789A4E80074FF001094FF0A6
:102D5000000839D5686810F00C0F07D06868C0F318
:102D60008100022809D16868C00306D4286880075A
:102D700014D52069012808D110E02069B0B1C6F847
:102D80000090FFF74BFD074605E00AE1FFF746FD1F
:102D9000C01B0228C4D828688007F7D52868616955
:102DA00020F0F80040EAC10028600DE0C6F800807D
:102DB000FFF734FD074604E0FFF730FDC01B022893
:102DC00023D828688007F7D4207800072CD57948C5
:102DD000A169D9B1C0F80090FFF720FD074604E0D3
:102DE000FFF71CFDC01B02280FD8686A8007F7D5C3
:102DF00071484FF4FA510068B0FBF1F0009000BF49
:102E00000098411E0091FAD20EE080E0C0F80080E8
:102E1000FFF704FD074604E0FFF700FDC01B022892
:102E200075D8686A8007F7D42078400760D5E869CC
:102E30000027C00008D4E86940F08050E861E869E4
:102E4000012700F0805000905C480168C90513D448
:102E50000168834641F480710160FFF7DFFC824620
:102E600006E000BFFFF7DAFCA0EB0A0064284ED8AA
:102E7000DBF80000C005F5D5E06801280AD008B1EC
:102E8000052813D0286A20F001002862286A20F063
:102E9000040002E0286A40F001002862E06841F284
:102EA000883B98B1FFF7BAFC82460BE0286A40F0F5
:102EB00004002862EEE700BFFFF7B0FCA0EB0A01B8
:102EC00059455AD8286A8007F6D50CE0FFF7A6FCCA
:102ED000824605E0FFF7A2FCA0EB0A0159454CD859
:102EE000286A8007F6D41FB1E86920F08050E861B5
:102EF000E06988B36968C1F38101022944D00228DE
:102F0000C6F8608004D0FFF789FC044638E034E05E
:102F1000FFF784FC074604E0FFF780FCC01B022893
:102F20002BD828688001F7D4206AB0F5803F05D1FE
:102F30006868A16820F4003008436860D4E908019B
:102F40000843696821F4741108436860C6F860900A
:102F5000FFF764FC044606E025E000BFFFF75EFCD7
:102F6000001B022809D828688001F7D51BE000BFA4
:102F7000FFF754FC001B022802D90320BDE8F88F9C
:102F800028688001F4D40EE00128F7D06868226A2E
:102F900000F48031914204D1616A00F470108842DB
:102FA00001D00120EAE70020E8E70000001002401D
:102FB000000042428004424218000020007000409D
:102FC00010B5401EB0F1807F01D3012010BD4FF03D
:102FD000E02460610F21601700F0ADFC0020A061CB
:102FE00007202061002010BD70477047F8B50168C8
:102FF00004460868CA684B6910F00F0F4FF00005CF
:1030000059D003F0010602F49077374365D0C10729
:1030100005D0D10503D5616C41F001016164410720
:1030200005D5D90703D0616C41F0020161648107C5
:1030300005D5D90703D0616C41F004016164010733
:1030400007D502F02001314303D0616C41F0080143
:103050006164616C00293AD0800604D5900602D5DF
:10306000204600F055FB20684069616CC0F3801079
:10307000090700D460B3204600F023FB20684069B4
:10308000400621D52068143050E8001F21F040018F
:1030900040E80012002AF5D1E06BA8B16D49416308
:1030A000E06BFFF78FF9002811D0E06B416B01B0A6
:1030B000BDE8F040084783060FD593060DD520469E
:1030C000BDE8F84000F024BB2046FFF78EFFF8BDB6
:1030D0002046FFF78AFF6564F8BD266B2023012E8A
:1030E0007CD1C6067AD5D60678D50868486800909F
:1030F00048694FF00206400640D5E16B0868406819
:103100000004000CE8D0A28D8242E5D9E0858869F0
:1031100020282DD020680C3050E8001F21F4807149
:1031200040E80012002AF5D12068143050E8001F52
:1031300021F0010140E80012002AF5D12068143086
:1031400050E8001F21F0400140E80012002AF5D1AC
:1031500084F84230256320680C3050E8001F21F0CD
:10316000100140E80012002AF5D1E06BFFF706F9E4
:103170006663A08DE18D401A81B22AE0A08DE18DB9
:10318000401A81B2E08D0028A6D00029A4D0226880
:103190000C3252E8000F20F4907042E80007002F34
:1031A000F5D12068143050E8002F22F0010240E8E9
:1031B0000027002FF5D184F84230256320680C30B9
:1031C00050E8002F22F0100240E80023002BF5D138
:1031D00066632046FFF708FFF8BDFFE705062BD51D
:1031E000150629D594F841002128F5D1A068B0F53D
:1031F000805F01D12069B0B1206A411C2162216841
:1032000000784860E08C401E0004000CE084E3D1AC
:103210002068C16821F08001C1602068C16841F068
:103220004001C160D8E7206A0088C0F30800486008
:10323000206A801C2062E5E74006CDD55006CBD53C
:10324000CA68204622F04002CA6084F8413000F08B
:10325000DEF8C1E7B336000870B5040004D094F876
:103260004100002510B106E0012070BD84F84050F7
:10327000204600F023F8242084F841002068C1682B
:1032800021F40051C160204600F0A4FA20680169D1
:1032900021F4904101612068416921F02A014161D6
:1032A0002068C16841F40051C1606564202084F841
:1032B000410084F842006563002070BD70B586B09F
:1032C0000025064600950195029503950068224960
:1032D00088423ED12149886940F4804088618869EC
:1032E00000F480400490886940F004008861886997
:1032F0001B4C00F00400049048150090022001903F
:103300000320039069462046FFF792F92015CDE986
:103310000005694620460295FFF78AF9124C1148CC
:10332000C4E900058020C4E9025025616561A561FA
:103330002046E561FFF73CF908B1FEF7C8FDF463EC
:103340000022114625206662FFF7D4FA2520FFF7F8
:10335000C3FA06B070BD0000003801400010024002
:103360000008014058000240A000002070472DE9ED
:10337000F843044690F84100984616460D4620282A
:1033800002D00220BDE8F88385B17EB100206064E0
:10339000212084F84100FFF741FAA6848146E684A3
:1033A000A0682027B0F5805F02D003E00120E9E7A4
:1033B000206910B12E4600250EE000260CE0802189
:1033C000204600F063FAA8B9C6B116F8010B2168CF
:1033D0004860E08C401EE084E08C4B464FF00002D9
:1033E000CDF800800028EAD14FF04001204600F0DF
:1033F0004DFA40B184F841700320C3E735F8020B61
:10340000C0F30800E3E784F841700020BAE7704792
:10341000FEE700003EB50024114800940194029498
:103420000E498460016004730475012505614FF441
:1034300060214460C161FEF7CFFD08B172B6FEE7BE
:1034400006200094CDE9015069460548FEF742FD8B
:10345000002801D072B6FEE73EBD00000024014006
:103460002800002070B586B000241848009401940C
:1034700002940394816941F010018161816901F036
:1034800010010491816941F020018161816901F09D
:1034900020010491816941F00401816180690C4E31
:1034A00000F004004FF400550490002229463046F5
:1034B000FFF7AEF901200095CDE901040220039049
:1034C00069463046FFF7B4F806B070BD0010024000
:1034D00000100140FEE7FEE7704700002DE9F05FB5
:1034E0000026DFF89C90DFF89CA0274DDFF89CB009
:1034F00034464FF066384FF4487700BFFEF7B4FC0F
:1035000000F04CFC42464B4600F05CFC0022534667
:1035100000F0ECFA00F0B8FA696801F053F800F036
:1035200035FE5A461A4B00F0E1FA00F0ADFA0146BA
:1035300000F07CFF314600F055FE641C0646BC429C
:10354000DCDB144900F0B0FE00F020FE00F060FA71
:1035500000F09AFA0446B0F17A5F00DA00240E4FC8
:103560000E48A96800F062FF06462146384600F082
:103570005DFF314600F036FEA860BDE8F09F000018
:1035800066660A4000FEAF40000000204C378941CB
:1035900060E5B03F00004844CDCC4C3ECDCC4C3F24
:1035A0007047000000B58FB000F0F0FDCDE90001DC
:1035B00007A209A102A8FCF72BFE02A8FCF7ECFE6B
:1035C00082B2642302A90848FFF7D1FE0FB000BD04
:1035D0004E4F44453200000025733A313A41433A98
:1035E000252E33660D0A00005800002000B58DB06E
:1035F00000F0CCFD02460B4607A16846FCF708FE2A
:103600006846FCF7C9FE82B2642369460848FFF7A2
:10361000AEFE0DB000BD00004E4F4445323A313A87
:1036200041435F504F5745523A252E32660D0A00EE
:1036300058000020FFF7F8B830B593B0282168464D
:10364000FCF7C9FE14210AA8FCF7C5FE00250120DD
:103650000F9510951195010412958DE823000490A3
:103660004FF4E010CDE90810022407946846FFF7F4
:1036700017FB08B172B6FEE70AA90F2081E83100F6
:103680004FF48060CDE90D0502210AA8FFF72CFA5E
:1036900008B172B6FEE74FF4004011900F940FA8E6
:1036A000FFF7ACF9002801D072B6FEE713B030BDC9
:1036B000704710B5406A0021C185C184FFF795FCB1
:1036C00010BD01680C3151E8002F22F4907241E8DE
:1036D0000023002BF5D10168143151E8002F22F0AE
:1036E000010241E80023002BF5D1016B012909D12A
:1036F00001680C3151E8002F22F0100241E800234C
:10370000002BF5D1202180F8421000210163704781
:1037100008B590F84210222901D0022008BD826825
:103720004FF480539A4201D1016921B1816A9A42D2
:103730001BD04AB10AE00268816A5268C2F30802EB
:103740000A80816A891C08E0026972B102685268C5
:1037500002F07F020A70816A491C8162C18D491E94
:103760000904090CC18503D01BE002685268F1E727
:103770000168CA6822F02002CA600168CA6822F49F
:103780008072CA6001684A6922F001024A61202100
:1037900080F8421000214163026B012A03D0FFF739
:1037A000E5FD002008BD016301680C3151E8002FE0
:1037B00022F0100241E80023002BF5D101680A68CD
:1037C000D20602D50A6849680091818DFFF70CFC8A
:1037D000E7E7000070B5044600680169E26821F47B
:1037E0004051114301612169A068084361690843A0
:1037F0002168CA6841F20C639A430243CA60206898
:103800004169A26921F44071114341611E49206858
:10381000884202D1FFF70EFA01E0FFF7FBF900EB57
:10382000C00101EB0012606864218000B2FBF0F37C
:10383000B3FBF1F36FF018067343B2FBF0F5B2FB84
:10384000F0F605EB8305322303EB0515B5FBF1F527
:10385000B6FBF1F605F0F00505EB0615B2FBF0F648
:10386000B2FBF0F0B0FBF1F06FF01802504306EB42
:10387000800003EB0010B0FBF1F0216800F00F00B6
:103880002844886070BD0000003801402DE9F843ED
:10389000984617460D460446089E24E0701C22D028
:1038A000FEF7BCFFA0EB0800B0421AD8CEB12068EA
:1038B000C168490717D5802D15D0402D13D0016858
:1038C000C94309070FD401680025406800902046CD
:1038D000FFF7F7FE0820606484F840500120BDE83F
:1038E000F8830320FBE72068006835EA000004D075
:1038F0000020B842D2D00020F1E70120F9E7000013
:103900000148FFF773BB000058000020FEE74900A4
:1039100050EAC12018BF04204A0D18BF40F0010032
:1039200040F2FF72B2EB515F08BF40F00200012885
:1039300008BF052070470907090E002804DB00F1C5
:10394000E02080F80014704700F00F0000F1E02044
:1039500080F8141D704730380A2801D201207047C2
:10396000002070478A68002A01DCFDF7E3B9521E87
:103970008A604A68C0B2531C4B60107070470000E8
:1039800008B5FEF759FFFFF757FEFFF76BFD1D481F
:10399000416941F0010141614069002200F00100EC
:1039A000009011460F20FEF7A5FF0F20FEF794FFB1
:1039B000164815490C2201604FF4E13141600021A5
:1039C0008160C160C0E904128161C161FFF744FCFC
:1039D00008B172B6FEE7FFF71DFDFEF795F94FF44B
:1039E000FA7600BFFFF77AFD0446FEF753FA054664
:1039F0002046FFF7D7FD2846FFF7F8FD3046FEF7D3
:103A000005FEEFE70010024000380140580000209A
:103A10002DE9F04106460F4600F0D2FA041E0D468D
:103A200018BF0120284320F00040C0F17F6000F162
:103A3000E040C00F0ED0301C18BF0120384320F0EA
:103A40000040C0F17F6000F1E040C00F04BF0120E2
:103A5000FCF7F0FC20462946BDE8F08110B50029AE
:103A60000AD00878002807D005487844FDF71CFBE9
:103A7000002801D0002010BD0248784410BD00008D
:103A8000460D00003E0D000021F00042A2F1605200
:103A9000B2F5801F01F0004328BFD2F17F6C0BD933
:103AA0005FEA001C43EAC20242EB507018BF704745
:103AB00028BF20F001007047B2F5801FBCBF184638
:103AC00070474FEA410C1CF5001F02D2084600F077
:103AD00074BD70B500F020FA00000089FFF7F6BF52
:103AE0004FF00040A0F58000704700002DE9C04174
:103AF00030B4DFF8A0C23CEA111418BF3CEA13143A
:103B000000F0EC8081EA03051CEA111444EAD57444
:103B100018BF1CEA131500F0C780A4EB05044FF092
:103B2000004545EAC12145EAC32341EA505143EA31
:103B3000525304F17F74994204F500344FEAC020D7
:103B40004FEAC22208BF904200F09C804FEA136502
:103B50000FF24016765D4FEA134506FB05F7C7F1F5
:103B6000807706FB07F74FEAD737A7FB0368764253
:103B7000C8F58038A7FB06CE38BFA8F1010807FBBF
:103B800008E64FF0000EA6FB028CE6FB03CEDCF14C
:103B9000000CCEF1004E38BFAEF1010EA6FB0C5862
:103BA0004FF000074FF00005E6FB0E87A1FB08C6AB
:103BB000A0FB07CE16EB0E0645F10005E1FB0765FD
:103BC00015F1E04E7EBFA4F580345FEA46066D41F4
:103BD00016F1800745F100054FEA17274FEA066600
:103BE00047EA0567A6F1DE46B6F1805F4FEA152584
:103BF0001FD9384624F0010C05EBC471BCF1FE6FEF
:103C000001EB0C1102D8F0BCBDE8008124425CBF7E
:103C100001F5801E9EEAC47F02D4F0BCBDE800819D
:103C2000244238D4F0BCA1F1C041BDE8004100F00D
:103C3000C1B94FEAD22242EA43524FEAD323A7FB4B
:103C400002864FEAD02040EA415007FB03661EEA95
:103C50000E0F4FEAD12105FB026658BFA6EB0056B6
:103C6000B6EB00564FEA520E4EEAC37E18EB0E0E2C
:103C700056EB530EBDD518EB02085E417F1C55F183
:103C80000005B6E74FF480154FF000074FF000062F
:103C90004FF00008ADE7F0BC4FF0000001F1C0416B
:103CA00001F00041BDE8008111EA0C1F0CEA131578
:103CB00000D00CE013EA0C1F00F025804FF000004C
:103CC000F0BC81EA030101F00041BDE80081F0BCD5
:103CD000BDE8004181EA030100F06CB9F0BCBDE829
:103CE000004170B500F018F9097EFC3E00F007B8FD
:103CF00081EA03014FF0000001F00041704781EAC2
:103D0000030100F057B9F0BCBDE800414FF00000DE
:103D100021497047FFFDFBF9F7F5F4F2F0EEEDEB0A
:103D2000E9E8E6E4E3E1E0DEDDDBDAD8D7D5D4D3B9
:103D3000D1D0CFCDCCCBCAC8C7C6C5C4C2C1C0BF05
:103D4000BEBDBCBBBAB9B8B7B6B5B4B3B2B1B0AF0B
:103D5000AEADACABAAA9A8A8A7A6A5A4A3A3A2A1EF
:103D6000A09F9F9E9D9C9C9B9A99999897979695AA
:103D700095949393929191908F8F8E8E8D8C8C8B46
:103D80008B8A8989888887878685858484838382CE
:103D9000828181800000FF070000F87FB0FA80F385
:103DA00010FA03F10AD0C3F11D0303F580634FEA53
:103DB00041504FEA035202EBD12170474FF000000F
:103DC00070470000DFF848C170B51CEA111E1EBF25
:103DD0001CEA13159EEA0C0F95EA0C0F00F06F8099
:103DE00081EA030423EA4C134EEAD47E21EA4C1103
:103DF00041F4801143F48013AE44A1FB024CA0FBBC
:103E00000365AEF17F7E361955EB0C05A1FB034C23
:103E10004CF10003A0FB021C16EB0C06654153F1AC
:103E20000003094218BF46F0010613F4007F0BD1CE
:103E30004FEA03314FEA0530340341EA155140EAB5
:103E400016506FF003020AE04FEAC3214FEAC52083
:103E5000F40241EA555140EA56506FF0020202EB7B
:103E60002E4201EB025585EACE710AD05FEA440C7E
:103E700018BF24F0004450F1000041F1000120EA95
:103E8000D47040F2FE7C624500D270BDA84214BFDF
:103E90004FF080444FF04044002E08BF0024BEF194
:103EA000806FA8BFA1F1C041BDE8704080F2828060
:103EB0004FF0000001F1C04101F0004170479EEA5F
:103EC0000C0F0CEA131518BF95EA0C0F06D04FF033
:103ED000000081EA030E0EF0004170BD00F01CF8F6
:103EE0008900013E00F007B800F009B84FEA430C22
:103EF0005FEA5C5C08D081EA030100F05BB84FEA3E
:103F0000410C5FEA5C5CF6D14FF00000014970475C
:103F10000000FF070000F87F0EF1020E2EF0030EE6
:103F20005EF8046B364205D4012A43EB030515F510
:103F3000001F12D8012841EB010C1CF5001F0CD802
:103F40000ED14FEAD17C15F5001F0CEB4C0C0CF197
:103F5000020C08BF4CEBD37C04E04FF0080C01E0EE
:103F60004FEAD37C0CEB4C0526FA05F606F0070663
:103F7000B6F1040C06D20EEB860CBDE870404CF096
:103F8000010C6047DFE80CF0090B02024FF0004122
:103F90004FF00000A1F5002170BD19461046012820
:103FA00051EB010418BFD4F5001484BF002001F0C8
:103FB000004170BD0808A0F500114FEA31017047BB
:103FC0002DE9F04101F5801CBCF5001FC0F2C38053
:103FD0004FEA115C21EA0C510CF1FD0C41F4801107
:103FE0005FEA5C0C0CF5C07C01D3400049413DA464
:103FF000890241EA905187028E0E0A0CA45D04FBEF
:1040000004F602FB06F6C6F14046A4FB0662F60D76
:1040100046EA422606FB06F4A4FB01235242C3F102
:10402000404338BF5B1EA6FB02420024E6FB03248C
:10403000D20B42EA4446A6FB0623A1FB02E2A3FB05
:1040400007E4A4184FF0000252F10002E3FB014222
:104050006442C2F1404E38BFAEF1010EA6FB04230C
:104060004FF00002E6FB0E32A2FB03464FF00004C5
:10407000B61954F10004E2FB0264A1FB06E6A4FBBE
:1040800007E816EB08064FF0000858F10008E4FBBB
:1040900001687642C8F1405838BFA8F10108A2FB78
:1040A00006E4A3FB08E52D194FF0000454F10004C9
:1040B000E2FB0854A1FB05E6A7FB04E818EB0608A1
:1040C0004FF0000656F10006E1FB048618F12005CA
:1040D00056F10006A809A8F11B08B10908F03F082D
:1040E000B8F10A0F40EA86601CD901EB0C51BDE81B
:1040F000F08100BFFCF5EEE8E2DDD8D3CFCBC7C33B
:10410000C0BDB9B6B4B1AEACA9A7A5A3A19F9D9BF4
:104110009A9896959392908F8D8C8B8988878685B7
:1041200084838281A0FB006800FB01F208EB420857
:10413000B8EB872807D5341858EB0104D5D5401CB7
:1041400051F10001D1E7341A78EB0104CDD4401EBF
:1041500071F10001C9E75FEA4C0C5FEA9C5C0DD18C
:1041600005D34FF0000001F00041BDE8F081BDE84B
:10417000F04170B5FFF7D0FE6DDBFFBEBDE8F0414A
:104180004FF00000004970470000F87F43004FEAFD
:10419000D30C4FEA3C0C43401FBF40070CF1605169
:1041A00013F0FE4F70471CF0006F03D100200CF09D
:1041B000004170470CF0004343EA507010B540EAEC
:1041C000CC0000F0B4F900BF000000924FEA0001FB
:1041D000FFF7F0BE4FF000414FF00000A1F50021C5
:1041E0007047000090EA010F48BF81F0004100F1E4
:1041F000F081421A3CBF801A89184FEAD0524FF022
:104200007F4C1CEA410FA2EBD15318BF9CEA026F0E
:1042100000F03B804FF0004C4CEA00204CEA0121BA
:1042200021FA03FC10EB0C0C1ED202F1FF325FEA04
:104230001C2040EBC25038BF70471CF07F0F4FEA84
:10424000400C18BFBCF17F4F38BF7047C3F120034B
:10425000994008BF20F00100BCF17F4F38BF704784
:10426000A0F1C04000F0A9B94FEA3C00000A40EBC1
:10427000C25028BF1CF0FF0F4FEA400CE6D018BF19
:10428000BCF17F4F38BF7047EAE79CEA026F05D068
:1042900010EA5C0F08BF00F00040704710B500F056
:1042A00046F900BF64FBBE3E4FF47F0C1CEAD012FF
:1042B0001EBF1CEAD11392EA0C0F93EA0C0F00F018
:1042C000858090EA010F48BF42F4807240F4000CF0
:1042D00041F400002CF07F4120F07F4000B5814286
:1042E000A2EB03020FF2081CACEB504EC0F1000031
:1042F0009EF800E04FEA4E0E00FB0EFC38BF49006E
:104300004FEA2C1C02F5FA020CFB0EF34FEACE1E0C
:104310004FEA112C4FEAC1210EEB635E42EB2242C1
:104320000EFB0CFC4FEA1C5300FB03114FEA112C4F
:104330004FEA01310EFB0CFC4FEADC4C00FB0C1188
:10434000C14228BF09184CEB03335DF804EB10EBB6
:10435000410143EBC250B2F57C0F38BF704729D5FD
:1043600012F0F00F1CBF00F1C04000F00040704799
:10437000008182838485868788898B8C8D8E8F913E
:104380009293959697999A9C9D9FA0A2A3A5A7A862
:10439000AAACAEB0B2B3B5B7B9BCBEC0C2C5C7C98E
:1043A000CCCED1D4D7D9DCDFE2E6E9ECF0F3F7FAF2
:1043B000FE0000004FEA400C0CF1807CBCF17E4F07
:1043C00028BF7047B0F1C04000F0F7B890EA010F85
:1043D0000CEAD11348BF42F48072624538BF63458E
:1043E00007D213F47F0F16D080EA010000F00040DE
:1043F000704710B500F09BF8097EFC3E00F005B850
:1044000080EA010000F00040704780EA010000F0FF
:10441000004000F0D2B812F47F0F04BF024870478A
:1044200080EA010000F0C9B80000C07F4FF47F0CA3
:104430001CEAD0121EBF1CEAD11392EA0C0F93EAB9
:104440000C0F00F0478090EA010F48BF42F48072E1
:104450004FF0004C4CEA00204CEA012102EB030231
:10446000A0FB0113A2F50002002918BF43F00103CD
:104470005B0028BF4FEA330342EB22425FEA132C72
:104480004CEBC2502EBFBCEB436FB2F57C0F7047B4
:104490004FEA036CBCF1004F08BF20F00100B2F5F9
:1044A0007C0F38BF70470BD582F0FF0212F5803FBA
:1044B000C8BF704700F1C040D8BF00F0004070474F
:1044C00000F5000C5FEA4C0C48BF7047B0F1C040EB
:1044D00000F073B890EA010F0CEAD11348BF42F420
:1044E0008072624538BF634504D280EA010000F063
:1044F0000040704710B500F01AF800BF8900013E77
:1045000000F007B800F009B85FEA410C5FEA1C6CE4
:1045100008D080EA010000F050B85FEA400C5FEA82
:104520001C6CF6D14FF00040A0F5800070470EF1F2
:10453000020E2EF0030E5EF8044B244204D44FEA20
:104540004102B2F17F4F11D84FEA4003B3F17F4FE0
:104550000CD80ED14FEAD07CB2F17F4F0CEB4C0C53
:104560000CF1020C08BF4CEBD17C04E04FF0080CBE
:1045700001E04FEAD17C0CEB4C0324FA03F404F085
:104580000704B4F1040C06D20EEB840CBDE8104015
:104590004CF0010C6047DFE80CF0070802024FF016
:1045A0000040A0F5800010BD0846420018BFD2F1BF
:1045B000807288BF00F0004010BDFF2141EAD0505A
:1045C000C005704790EA010F48BF81F000413FF5F8
:1045D00010AE421A04D882F00042A0EB020011444F
:1045E0004FEAD0524FF07F4C1CEA410FA2EBD1535F
:1045F00018BF9CEA026F4AD04FF0004C4CEA0020F2
:104600004CEA012121FA03FCB0EB0C0C0FD412F0A0
:10461000FE0F36D05FEA4C001DD5001240EBC250B1
:1046200038BF70471CF03F0F18BF70470BE0A2F176
:1046300001025FEA1C2040EBC25038BF70471CF0FB
:104640007F0F18BF7047C3F12003994014BF401E6D
:1046500020F00100704780084FEA122308BF70471E
:10466000B0FA80FCA2EB0C02CCF1280C60FA0CF042
:1046700093EA122F04BF00EBC25070474FEAC37099
:104680007047130A5FEADC1008BF7047F6E79CEA40
:10469000026F04D010EA5C0F08BF0020704710B50D
:1046A000FFF745FF40DFF63E81F000407047FBF723
:1046B000A0BF010202030405060708090A0B0C0D3E
:1046C0000E0F1010010202030405060708090A0B69
:1046D0000C0D0E0F10100000000000000000010281
:1046E000030406070809000000000102030400009B
:1046F00002400000000000A0000000000540000093
:10470000000000C8000000000C4000000000409CB9
:1047100000000000194000000020BCBE00000000A6
:1047200034400000BFC91B8E00000004B5400000EB
:10473000504BCFD06607E2CF010000006C41000073
:104740003E8251AADFEEA73401000000D9420000EA
:10475000DCB5A0E23A301F97FFFFFFFFB445000031
:10476000FD25A0C8E9A3C14FFFFFFFFFFF3F0000E9
:104770000000008000000000FF3F000000000080FB
:10478000000000003A7474003A7474003A747400C3
:10479000CC47000800000020280000002801000885
:1047A000F447000828000020180800004401000811
:1047B0001C00000043000000F8FFFFFF0C00000099
:1047C0000E0000000F0000002E000000000000009E
:1047D00000000000000000000100000010000000C8
:1047E0000000000000127A0000000000000000003D
:0447F00000000000C5
:04000005080000ED02
:00000001FF
